:020000040800F2
:10000000000002203D490108D54C0008D74C0008EB
:10001000DD4C0008DF4C0008E14C00080000000047
:1000200000000000000000000000000071C0000897
:10003000E34C00080000000011C1000875C1000871
:100040008D4901088D4901088D4901088D49010834
:10005000E54C00088D4901088D4901088D490108CA
:100060008D490108ED4C0008F74C00088D49010846
:10007000014D0008114D00088D4901088D49010806
:100080008D4901088D4901088D4901088D490108F4
:10009000214D0008314D00088D490108414D0008EF
:1000A0008D4901088D4901088D4901088D490108D4
:1000B0008D4901088D4901088D4901088D490108C4
:1000C0008D4901084D4D00085D4D00086D4D00083B
:1000D0007D4D00088D4D00088D4901089D4D00089B
:1000E0008D4901088D4901088D4901088D49010894
:1000F0008D490108AD4D00088D490108C54D000826
:100100008D4901088D4901088D4901088D49010873
:100110008D4901088D4901088D4901088D49010863
:10012000D54D00088D490108E54D0008F54D000842
:100130008D4901088D4901088D4901088D49010843
:10014000054E0008154E00088D490108254E00088F
:10015000354E0008454E0008554E0008654E000813
:10016000754E0008854E00088D4901088D4901082B
:100170008D4901088D4901088D49010800000000E2
:080180008D4901088D490108B9
:1001A000931E222B10B50C460CD80A2A03D000F05F
:1001B000DFF8204610BD0028F9DA2D2301F8013BB5
:1001C0004042F4E700230B70184610BD931E222B0B
:1001D00010B50C460CD80A2A03D000F0C9F8204606
:1001E00010BD0028F9DA2D2301F8013B4042F4E765
:1001F00000230B70184610BD024B0146186800F032
:100200002FB800BF00000020024B0146186800F024
:100210003FBC00BF0000002070B5104E336805469B
:100220000C46B3B12146284600F076F9431C0CD0A9
:10023000C41C24F00304A04205D0211A284600F073
:100240006BF9013001D0204670BD4FF0FF342046DD
:1002500070BD194600F060F93060E3E7680D0020DA
:100260002DE9F041CD1C25F0030508350C2D38BFD4
:100270000C25002D82B0064616DBA94214D8354F56
:1002800000F06AF87A68AAB1144603E0636822466F
:1002900083B11C4623685B1BF8D40B2B21D8A242E8
:1002A000636855D053600DE00C233360002002B02A
:1002B000BDE8F08129463046FFF7AEFF431C0446F7
:1002C00019D00560304600F04DF804F10B00231DF5
:1002D00020F00700C21A1CBF1B1AA35002B0BDE8D1
:1002E000F0816119A242256014BF516079606351A9
:1002F00063684B60E6E77B6823B31C465B68002BB2
:10030000FBD1226801931946304604EB020800F045
:1003100003F9804516D12268AD1A29463046FFF709
:100320007BFF01300ED022687868019B2A4422604E
:10033000426812B90CE010465268A242FBD1002379
:100340004360BFE70C233360304600F00BF8ADE7A5
:100350007B60B7E7680D0020014800F021B900BFBD
:10036000C00E0020014800F023B900BFC00E0020DD
:10037000F0B5254FA2F1020E164605460C460FCFEA
:100380008BB0EC46ACE80F000FCFACE80F0097E85D
:1003900003004CF8040BBEF1220F8CF800102ED88D
:1003A00004F1FF3E70464FF0000CB5FBF6F206FB81
:1003B000125328336B44614613F828CC00F801CF60
:1003C0002B469E4201F1010C1546EED9002304F89C
:1003D0000C3089B1A44472461EF8010F1CF8015D6F
:1003E0008EF80050A4EB0E030232013B121B0B44AB
:1003F0009A428CF80000EEDB20460BB0F0BD0023E3
:10040000184623700BB0F0BD28580108FFF7B0BFA5
:10041000830730B547D0541E002A3ED0CAB20346E7
:1004200001E0013C39D303F8012B9D07F9D1032CDE
:100430002CD9CDB205EB05250F2C05EB054535D99B
:10044000A4F1100222F00F0C03F1100EE6444FEA63
:10045000121C1A46156055609560D56010327245C1
:10046000F8D10CF1010214F00C0F03EB021204F0AE
:100470000F0C13D0ACF1040323F003030433134433
:1004800042F8045B9A42FBD10CF003042CB1C9B2D0
:100490001C4403F8011B9C42FBD130BD644613464B
:1004A000002CF4D1F9E703461446C0E71A46A446E7
:1004B000E0E700BF830710B5044610D10268A2F13F
:1004C000013323EA020313F0803F08D150F8042FD0
:1004D000A2F1013323EA020313F0803FF6D0037840
:1004E0001BB110F8013F002BFBD100F0D9F92046D9
:1004F00010BD00BF71B1034600EB010C01E0634584
:1005000006D01A46013311780029F8D1101A704725
:10051000181A70470846704738B5074D0022044640
:1005200008462A6002F092F9431C00D038BD2B68BF
:10053000002BFBD0236038BDAC0E002070B50F4BF4
:100540000F4DAB42A3EB050607D0B610002455F8BB
:10055000043B01349847A642F9D814F02FFE094D08
:10056000094B5E1BAB424FEAA60606D0002455F8A5
:10057000043B01349847A642F9D870BDFC650108D8
:10058000FC650108FC65010800660108704700BFB2
:10059000704700BF704700BF704700BF704700BF83
:1005A000704700BF0120704701207047704700BFAF
:1005B000704700BF000000000000000000000000C5
:1005C00002780B78012A28BF9A4240F0D8806DE962
:1005D000044540EA0104CDE902676FF0000C4FEAE0
:1005E00044721AB380EA010414F0070F6BD100F0D3
:1005F000070420F0070004F0030521F007014FEA8B
:10060000C505F0E8042314F0040FF1E804670CFAC0
:1006100005F462EA040266EA04060BD063EA040306
:10062000624667EA0407664604E000BFF0E8042378
:10063000F1E8046782FA4CF582EA0604A4FA8CF425
:100640006CBB83FA4CF583EA0705A5FA8CF595B9DE
:1006500050E9022351E9026782FA4CF582EA060466
:10066000A4FA8CF483FA4CF583EA0705A5FA8CF515
:100670002543DBD09CB92DBAB5FA85F424F00704E4
:1006800027FA04F1DDE9026723FA04F303F0FF001F
:1006900001F0FF01FDE80445A0EB0100704724BA1A
:1006A000B4FA84F424F0070426FA04F1DDE90267C1
:1006B00022FA04F202F0FF0001F0FF01FDE8044518
:1006C000A0EB0100704714F0030F3CD110F00304BD
:1006D00028D150F8082B51F8083B82FA4CF582EAF1
:1006E0000305A5FA8CF55DB950F8042C51F8043CCB
:1006F00082FA4CF582EA0305A5FA8CF5002DE8D0C4
:100700002DBAB5FA85F424F0070423FA04F122FA8D
:1007100004F202F0FF0001F0FF01FDE80445A0EB48
:10072000010070474FEAC40420F0030050F8082B82
:1007300021F0030151F8083B0CFA04F462EA0402C8
:1007400063EA0403C9E710F003041DD0A1EB040120
:1007500020F00300E40750F8042B06D012D28B7867
:100760005FFAA2F4E41A06D12BB1CB785FFAB2F4A7
:10077000E41A00D133B920465DF8104B7047A2EB64
:100780000300704701F1040150F8042BCC0721F05D
:10079000030151F8043B48D824D222F07F4482FA66
:1007A0004CF594EA1325A5FA8CF50AD165B951F8F0
:1007B000043B84EA0204B4EB036F0ED150F8042B1F
:1007C000EBE74FEA132355E035F07F454DD108782C
:1007D000FDE80445C0F1000070474FEA126203F0E3
:1007E000FF0347E002EA1C4482FA4CF594EA134501
:1007F000A5FA8CF50AD165B951F8043B84EA0204E4
:10080000B4EB034F0CD150F8042BEBE74FEA134342
:1008100030E015EA1C4528D10B884FEA124229E046
:100820004FEA124203EA1C4324E002F0FF0482FA7A
:100830004CF594EA1365A5FA8CF50AD165B951F81F
:10084000043B84EA0204B4EB032F09D150F8042BD3
:10085000EBE74FEA13630DE015F0FF0F05D10B68CE
:100860004FEA122223F07F4304E04FF00000FDE83E
:100870000445704712BA1BBA82FA4CF482EA0304A8
:10088000A4FA8CF5B5FA85F402FA04F203FA04F33B
:100890004FEA1260FDE80445A0EB1360704700BF0B
:1008A00080EA0102844612F0030F4FD111F0030FCA
:1008B00032D14DF8044D11F0040F51F8043B0BD028
:1008C000A3F101329A4312F0803F04BF4CF8043B7D
:1008D00051F8043B16D100BF51F8044BA3F101328B
:1008E0009A4312F0803FA4F101320BD14CF8043B43
:1008F000A24312F0803F04BF51F8043B4CF8044B74
:10090000EAD023460CF8013B13F0FF0F4FEA3323E4
:10091000F8D15DF8044B704711F0010F06D011F8C3
:10092000012B0CF8012B002A08BF704711F0020FB1
:10093000BFD031F8022B12F0FF0F16BF2CF8022B9C
:100940008CF8002012F47F4FB3D1704711F8012BBF
:100950000CF8012B002AF9D1704700BF844641EA08
:10096000000313F003036DD1403A41D351F8043B27
:1009700040F8043B51F8043B40F8043B51F8043B79
:1009800040F8043B51F8043B40F8043B51F8043B69
:1009900040F8043B51F8043B40F8043B51F8043B59
:1009A00040F8043B51F8043B40F8043B51F8043B49
:1009B00040F8043B51F8043B40F8043B51F8043B39
:1009C00040F8043B51F8043B40F8043B51F8043B29
:1009D00040F8043B51F8043B40F8043B51F8043B19
:1009E00040F8043B51F8043B40F8043B403ABDD288
:1009F000303211D351F8043B40F8043B51F8043B2A
:100A000040F8043B51F8043B40F8043B51F8043BE8
:100A100040F8043B103AEDD20C3205D351F8043BB8
:100A200040F8043B043AF9D2043208D0D2071CBF84
:100A300011F8013B00F8013B01D30B8803806046AD
:100A4000704700BF082A13D38B078DD010F0030323
:100A50008AD0C3F10403D21ADB071CBF11F8013B93
:100A600000F8013B80D331F8023B20F8023B7BE7E2
:100A7000043AD9D3013A11F8013B00F8013BF9D20D
:100A80000B7803704B7843708B78837060467047A7
:100A9000002950D038B551F8043C0C1F002BB8BFCA
:100AA000E4180546FFF758FC274A13682BB1A34208
:100AB0000CD92168601883422CD0636028461460EA
:100AC000BDE83840FFF74EBCA3420FD81A465B681A
:100AD000002BF9D111685018844217D02CD36360D1
:100AE00054602846BDE83840FFF73CBC11685018F8
:100AF000A04214D020D8216860188342EFD1186832
:100B00005B680844C4E900035460EAE723680B44C7
:100B10001360E6E718685B6808442060CDE720684A
:100B20000144501883421160DBD1D3E90004014431
:100B3000C2E90014D5E770470C232B602846BDE8B6
:100B40003840FFF70FBC00BF6C0D002008B52DED3D
:100B5000028BB0EE408A00F02BFAB4EE488AF1EE38
:100B600010FAF0EE408A0AD6B0EE480A00F000F91A
:100B7000F7EE007AB4EEE70AF1EE10FA04DCB0EE1C
:100B8000680ABDEC028B08BD02F0A6FABDEC028B30
:100B9000034621221A600248BDE8084000F034B93B
:100BA0004457010808B52DED028BB0EE408A00F0E5
:100BB00025FBB4EE488AF1EE10FAF0EE408A0AD630
:100BC000B0EE480A00F0D4F8F7EE007AB4EEE70A87
:100BD000F1EE10FA04DCB0EE680ABDEC028B08BD41
:100BE00002F07AFABDEC028B034621221A60024819
:100BF000BDE8084000F008B94457010800F0FCBB0C
:100C000008B52DED048BB0EE608AB0EE409A00F08E
:100C100099FCB4EE488AF1EE10FAF0EE408A0BD659
:100C2000B5EE409AF1EE10FA17D1B5EE408AF1EE2A
:100C300010FA06D1F7EE008AB0EE680ABDEC048B1C
:100C400008BDB0EE480A00F0D5F80028F4D0B5EEA3
:100C5000C08AF1EE10FAEFD525E000F0CBF888B1AC
:100C6000F5EE408AF1EE10FAE6D1B0EE490A00F056
:100C7000C1F80028E0D0B0EE480A00F0BBF8002828
:100C8000DAD010E0B0EE490A00F0B4F80028E7D05E
:100C9000B0EE480A00F0AEF80028E1D0F4EE688A21
:100CA000F1EE10FA04D602F017FA22230360C3E72C
:100CB00002F012FA21230360BEE700BF08B52DED54
:100CC000028BB0EE408A00F0A5F8B4EE488AF1EE4F
:100CD00010FA06D6DFED098AB4EEE88AF1EE10FAD2
:100CE00002D4BDEC028B08BD02F0F6F988EEA80A2A
:100CF000BDEC028B2123036008BD00BF0000000093
:100D000010EE103A184923F000428A421BD9B2F182
:100D1000FF4F02D330EE400A704700B583B06846FB
:100D200000F056FF00F003000128DDED010A9DED03
:100D3000000A0CD0022812D070B1012000F0F0F8A7
:100D400003B05DF804FBDFED090A00F067B800F0BE
:100D5000E7F8B1EE400AF3E700F060F8F0E700F0E2
:100D60005DF8B1EE400AEBE7D80F493F0000000004
:100D700010EE103A23F0004300EE103A704700BF27
:100D800010EE103A194923F000428A421CD9B2F100
:100D9000FF4F02D330EE400A704700B583B068467B
:100DA00000F016FF00F003000128DDED010A9DEDC3
:100DB000000A0ED0022813D070B100F02FF8B1EE67
:100DC000400A03B05DF804FBDFED090A002000F0E3
:100DD000A7B800F023F8F4E7012000F0A1F8F0E74D
:100DE000012000F09DF8B1EE400AEAE7D80F493F34
:100DF0000000000010EE103A23F00040B0F1FF4F69
:100E0000ACBF0020012070479FED010A704700BF72
:100E10000000C07FB1EEC00A704700BF10EE103A6C
:100E200023F00043B3F1485F2CD2FDEEC07A17EEF9
:100E3000903A002B60D060EE007A9FED317A9FED02
:100E4000315ADFED315A9FED316ADFED316AA7EE9D
:100E5000875A9FED307AE5EE275AA7EEA56AA7EEEE
:100E6000867AE7EE876A67EEA66A60EEC00AB6EE9B
:100E7000007AE7EEA60AB7EE000AD7EE870A30EE50
:100E8000600A704760EE007A9FED1D7A9FED1D5A53
:100E9000DFED1D5A9FED1D6ADFED1D6A1E4AA7EEAC
:100EA000875A93429FED1B7AE5EE275AA5EEA76A73
:100EB000A6EE277AE7EE276A66EEA76AD5D9174A23
:100EC000934214D803F17F4307EE103AB7EE006A5D
:100ED00036EE476A60EEC00AF6EE005A97EEA57A43
:100EE000E7EEA60A37EE607A36EE470A7047B6EEAE
:100EF000076AB5EE027AEDE7B7EE000A704700BF69
:100F00004ED747ADF6740F317CF293B4010DD03754
:100F1000ABAA2A3D610BB6BA9999993E0000483FA9
:100F200010EE103A23F00043B3F1485F04D2FDEE17
:100F3000C07A17EE903A5BB360EE007A9FED157AB7
:100F4000DFED155A9FED156ADFED156AE7EE875A5A
:100F50009FED147AA5EEA76A20EE275AE6EE276ADF
:100F6000A6EEA77A30B9DFED106AE7EE876AA6EE43
:100F7000850A704727EE457AF6EE006AA0EEA67A5B
:100F8000DFED0A6AD7EE270AE5EE260A30EE600AA0
:100F9000704700BFD3C92E2F342FD7B21BEF38367E
:100FA000010D50B98988083CABAA2ABEABAA2A3EDB
:100FB00008B510EE102A22F00043B3F17E5F2DED4C
:100FC000028B12D00AD8B3F17C5F19D2B3F10C5F57
:100FD0006ED8BDEC028B9FED780A08BD70EE407AAA
:100FE00087EEA70ABDEC028B08BDBDEC028B9FED1E
:100FF000730ADFED737A002AC8BFB0EE670A08BD36
:10100000002AC0F29280F7EE008A38EEC00AF6EEAF
:10101000007A20EE278AB0EE480AFFF7FBFEDFEDEC
:10102000697A9FED697A9FED696ADFED695ADFEDB4
:10103000696AA8EE277ADFED687AA7EE086AE8EE1B
:10104000257ADFED665A9FED667AE6EE086AE7EEEE
:10105000885ADFED647AA6EE887AE5EE887A10EE9B
:10106000103A23F47F63B0EE476A23F00F039FED3D
:101070005E7AF0EE676A07EE903AA6EE087AF0EE36
:10108000485AE7EEE75AE6EE888A30EE276A27EEFE
:10109000087AC5EE866A87EE286ABDEC028BB0EE50
:1010A000667AA0EE067A37EE870A30EE000A08BDAF
:1010B00020EE007ADFED437A9FED436ADFED436A6D
:1010C0009FED435ADFED435AA7EE276ABDEC028B32
:1010D000E6EE076ADFED407A9FED406AE7EE057ABB
:1010E000E6EE875AA7EE876A9FED3D5ADFED3D7A1F
:1010F000DFED3D6AA5EE875AE6EE077AE5EE076A70
:10110000F7EE005AE7EE875A26EE877A9FED376AA8
:10111000DFED377AC7EE256AB0EE467AA0EE667A42
:1011200030EE470A37EEC00A08BDB7EE007A30EE5F
:10113000070AF6EE007A60EE277ADFED226A9FED6D
:10114000226ADFED224ADFED225A9FED225A9FEDFF
:10115000268AA7EEA66ADFED206AE6EE274AE7EECA
:10116000A56ADFED1E5A9FED1E6AA4EEA75AE6EEB1
:10117000A75ADFED1C6AA5EE276AE5EEA76AA6EE80
:10118000278AA6EEA77A28EE278AF0EE478AB0EEE5
:10119000670AFFF73FFE88EE286A9FED167ADFEDBB
:1011A000167AA0EE067AF0EE006A37EE007AE7EEE5
:1011B000667AB0EE670A15E7DB0FC93FDB0F4940DF
:1011C0000000000008EF1138047F4F3A461124BD9B
:1011D0002EC69D3DA80A4E3E613330BF2D570140BB
:1011E00090B0A6BE39D119C0ABAA2A3E6821A2335D
:1011F000DA0FC93F6821A2B3DA0F494038B510EEC3
:10120000105A25F00044B4F17E5F2DED048BF0EE12
:10121000407A00F0828079D8B4F17C5F0ED2B4F1CC
:10122000485F80F094809FED647A30EE077AF7EEA5
:10123000006AB4EEE67AF1EE10FA64DCB0EE670A0A
:10124000FFF796FDF7EE007A37EEC08AB6EE007A29
:1012500028EE078ADFED596A9FED597A9FED596AAA
:101260009FED595ADFED595ADFED598AE8EE076ACA
:101270009FED587AA8EE067A9FED576AA6EE885A37
:10128000A7EE086A9FED557ADFED556AE5EE085A3C
:10129000A6EE087AE5EE886AE7EE087AE6EE888A36
:1012A000B0EE480AB0EE679AFFF7B4FD4D4B9C4292
:1012B00068EE888A3CD810EE103A23F47F6323F05E
:1012C0000F0306EE903AA6EEE68A70EE267A88EED6
:1012D000895AC8EE274A9FED447ADFED447AB0EE92
:1012E000006AA4EEC67A30EE000AF0EE675A90EE7D
:1012F000057AE6EEC65A37EE657A37EEC70A002D54
:1013000001DCB1EE400ABDEC048B38BDBDEC048BB2
:1013100070EE407A87EEA70A38BDBDEC048B9FEDD6
:10132000320A9FED337A27EE800AA7EE870A38BD8E
:1013300088EE896A9FED2F7ADFED2D7AA0EE060AFE
:10134000F0EE006AA0EE267A37EEC70AD7E720EE65
:10135000007ADFED1B6A9FED196ADFED1B5A9FEDE6
:10136000195ADFED1A4AA7EE266ABDEC048BE6EEA9
:10137000075ADFED186A9FED186AE7EE056AE5EE99
:10138000874AA6EE876A9FED165ADFED145ADFED05
:10139000106AA4EE875AE6EE075AE5EE076AB7EE42
:1013A000006AA5EE876A26EE877AC7EE066AE0EE47
:1013B000267AB0EE670A38BDCAF24971047F4F3A07
:1013C00008EF11382EC69D3D461124BDA80A4E3E99
:1013D000ABAA2A3E613330BF2D57014039D119C025
:1013E00090B0A6BE9999793F2EBD3BB3DB0F493F24
:1013F000DB0FC93F2EBD3B3310B582B0CDED010AE6
:10140000019B23F00042B2F1FF4FF0EE407A30D85A
:1014100010EE100A20F00041B1F1FF4F29D8B3F1CE
:101420007E5F42D09C1704F0020444EAD07431B3CA
:101430007AB3B2F1FF4F40D0B1F1FF4F29D0891AF2
:10144000B1F1F45F4FEAE15234DA002B42DA3C3278
:1014500040DA9FED340A012C4ED0022C43D064B107
:101460009FED317ADFED317A30EE070A30EE670A10
:1014700003E09DED017A37EE270A02B010BD022C81
:1014800010D09FED2B7A032C08BFB0EE470A02B0B4
:1014900010BD9FED280ADFED287A0028B8BFB0EE16
:1014A000670AEAE79FED210AE7E702B0BDE81040CE
:1014B00000F0BEBC9FED1F0ACDE7B1F1FF4F04F174
:1014C000FF3420D0022C26D81C4B03EB840393ED71
:1014D000030AD2E79DED017A87EE870AFFF748FC01
:1014E00000F0A6FCB7E79FED107ADFED107A30EE42
:1014F000070A37EEC00AC0E710EE103A03F10043C6
:1015000000EE103AB9E7022C08D80C4B03EB840329
:1015100093ED000AB1E79FED030AAEE79FED080ADD
:10152000ABE700BF000000002EBDBB33DB0F49401E
:10153000DB0F49C0DB0FC93FDB0FC9BFEC5201080D
:10154000DB0F493F2DE9F0432DED028B83B0CDED4C
:10155000010A8DED000ADDE9004535F0004610D1A5
:1015600084F48004640014F5000F1BD9DDED007ACB
:101570009DED017A37EE870A03B0BDEC028BBDE822
:10158000F08324F00047B7F1FF4F02D8B6F1FF4FC8
:101590000FD9B4F17E5FE9D185F480056D0015F5B2
:1015A000000FE3D8B7EE000A03B0BDEC028BBDE834
:1015B000F083002CB846C0F2F180B6F1FF4F00F086
:1015C0000281B6F17E5F00F04481B5F1804F00F0FA
:1015D00051814FF00009B5F17C5F40F01C81002C77
:1015E0009DED000A80F24B81FFF7C2FBB7F1FF4F80
:1015F00000F02481002F00F02181B7F17E5F00F020
:101600001481E20F013A59EA020300F04481B6F175
:101610009A4F40F26781A34B9F4240F26882A24BEF
:101620009F4200F27182F7EE007A30EE670A9FED7A
:101630009F6ADFED9F5AF5EE007AA0EE676AF6EE3C
:10164000006AE6EE406A20EE007ADFED9A7A9FEDBE
:101650009A6A27EE267A67EEC77AE0EE257AF0EEF0
:10166000676AE0EE066A16EE903A23F47F6323F091
:101670000F0306EE903AB0EE667AA0EE467A77EE69
:10168000C77A25F47F6525F00F059DED017A06EEFA
:10169000105A67EE877A37EE466A07EE105AE6EE82
:1016A000267A09F1FF3959EA020926EE877ABFEE58
:1016B000008A77EE876AB7EE006A16EE902A18BFA6
:1016C000B0EE468A002A134622F0004140F3D6814C
:1016D000B1F1864F00F2458200F02982B1F17C5FC2
:1016E00000F247820022104623F47F6323F00F03A9
:1016F00006EE103ADFED716A9FED713A9FED712AA7
:10170000DFED713A9FED714ADFED714A9FED715A3D
:1017100036EE477AF0EE002A77EEC77A26EE267A82
:10172000DFED6D6AA7EEA67AB7EE000AF0EE476A23
:10173000E6EE036A66EEA65AF0EE667AE5EE823AC7
:10174000E6EE437AB0EE446AA3EEA56A77EE677AD6
:10175000B0EE647AA6EE257AB0EE456AA7EE256A69
:10176000B0EE667AA6EE657AE6EEA77A66EE875A5E
:1017700037EE626A85EE867A77EE677A77EEE67AFA
:1017800030EE670A10EE103A1344B3F5000FC0F2C2
:10179000B88100EE103A20EE080AEDE6B6F1974F58
:1017A00021D2B6F17E5F24D2B5F1804F62D0B5F17F
:1017B0007C5F2ED1FFF7DCFAB7F1FF4F3FF4DCAED0
:1017C0004FF0000916E7B7F17E5F3FF4EBAE45D965
:1017D0009FED420ADDED017A002DB8BFF0EE407AB0
:1017E000B0EE670AC8E6B6F1FF4FECD04FF0020941
:1017F000F1E6F315C3F1960346FA03F202FA03F396
:10180000B34200F02781B6F17E5F22D0B5F1804F60
:1018100030D04FF000099DED000AFFF7A9FAB7F1AB
:10182000FF4F02D0002F7FF4E8AE002DBCBFF7EED3
:10183000007A87EE800A002CBFF69EAEA7F17E5795
:1018400057EA090740F0138170EE407A87EEA70A45
:1018500092E6002D07DB9DED000A8DE6002D15DBDD
:101860009FED1E0A88E69DED007AF7EE007A87EE7E
:10187000870A81E6DDED007A27EEA70A7CE603B051
:10188000BDEC028BBDE8F043FFF7C4BADDED017A91
:10189000B1EE670A70E6DDED007A77EEE77A87EE63
:1018A000A70A69E6F3FF7F3F0700803FABAAAA3E85
:1018B00070A5EC363BAAB83F00AAB83F8CBEBF3536
:1018C0000072313F4CBB31330EEADDB555B38A3877
:1018D000610B36BBABAA2A3E1872313F00000000F4
:1018E0000000804B14F0FF4F40F0FF805FED047A62
:1018F00060EE277A6FF0170317EE908AA2484FEA3E
:10190000E851C8F316087F398045194448F07E53E2
:1019100040F3E3809D48804540F300819FED9C4A61
:101920000131B0EE443AA3F50003F7EE005A00206F
:1019300006EE903A76EEA57AB7EE007A87EE270AA1
:101940005B1043F0005303F58023034436EEE56A51
:1019500007EE901A66EE003AB8EEE77A07EE903A94
:1019600013EE901A8B4BDFED8C0A9FED8C8A9FED66
:101970008C1ADFED8C2ADFED8C1A9FED8C2A77EE26
:10198000E55A194076EEE55A06EE901A23EEA35A70
:10199000A6EEE76AF0EE607AE5EE087AA6EEE56A72
:1019A000A7EE851A26EE006AE1EE052A73EEA67A06
:1019B000E2EE851A25EE058AA1EE852A67EE867A83
:1019C000F0EE084AF0EE645AE6EEA65AE8EE027A25
:1019D000DFED770A9FED771ADFED772A75EEA75ACC
:1019E00015EE901A194005EE901A75EEE44AE6EEEF
:1019F000E64A77EEE47A67EEA37AE6EE257AB0EE71
:101A0000676AA6EEA56A16EE101A194006EE101ABD
:101A1000B0EE465AA6EEE55A77EEC57A67EEA07AA2
:101A2000E6EE017A77EE837AF0EE676AE6EE226AF6
:101A300076EE846A76EE876A16EE901A194006EE04
:101A4000901A36EEC77A37EE447AA6EE627A77EECF
:101A5000C77A16E6B6F17E5F3FF4FBAEB5F1804F74
:101A60003FF408AF02F00102C2F10209D3E6B9F176
:101A7000010F7FF481ADB1EE400A7DE54F48814210
:101A800079D87FF42BAE76EEC76AF4EEE76AF1EE12
:101A900010FA70DA86214FF400037E3943FA01F11F
:101AA0001144C1F3C7547F3C03F17F43C1F31600D7
:101AB000234140F40000C4F117042041002A03EA46
:101AC0000103B8BF404206EE903A37EE667AC2058F
:101AD00077EE876A16EE903A06E69FED2D4AF7EE0E
:101AE000005AB0EE443A002022E7002306E7002D1A
:101AF0000CDB002003B0BDEC028BBDE8F04300F02E
:101B0000F5BA00F065FA46E6002DF2DD002003B0DC
:101B1000BDEC028BBDE8F04300F0EEBA9FED284A21
:101B20009FED283AF7EE085A4FF4001000E79FEDBA
:101B3000266A76EEC76A37EE866AB4EEE66AF1EE9A
:101B400010FA0EDC02F50042204BD1157F39C2F3AA
:101B500016000B4140F40000C1F117011340084189
:101B6000B1E7B5EEC08AF1EE10FA4CBF01200020BB
:101B7000CDE7C9158FE7B5EEC08AF1EE10FA4CBF7C
:101B800001200020B6E700BF71C41C00D6B35D0081
:101B90000000000000F0FFFF55326C3E42F1533E62
:101BA00005A38B3EABAAAA3EB76DDB3E9A99193FBF
:101BB0004F38763FA0C39D360038763F000016436D
:101BC00000C0153FDCCFD1353CAA3833000080FF80
:101BD00070B510EE103A884A23F00044944286B063
:101BE000054671D9854A94421E4624D823F0004206
:101BF000002BDFED837A834922F00F02B0EE407AAA
:101C000040F3E0808A4270EE677A09BF9FED7E7AEA
:101C1000DFED7E6ADFED7E6A77EEC77A37EEE67A31
:101C200077EEC77A80ED007A77EEE67AC0ED017A3A
:101C3000012006B070BD774A944252D9B4F1FF4FEB
:101C400048D2E215863AA4EBC25307EE903ABDEEB5
:101C5000E77ADFED716AB8EEC77A77EEC77A8DED75
:101C6000037A67EEA67ABDEEE77AB8EEC77A77EE2A
:101C7000C77A8DED047A67EEA67AF5EE407AF1EE3A
:101C800010FACDED057A40F09880B5EE407AF1EE8D
:101C900010FA0CBF01230223604901910221009137
:101CA00003A8294600F04CFA002EC2DA95ED007A1E
:101CB000D5ED017AB1EE477AF1EE677A85ED007ADB
:101CC000C5ED017A4042B4E7002285ED000A42608A
:101CD0000020AEE770EE407AC0ED017AC0ED007AE8
:101CE000F6E7FFF745F89FED4E7A9FED456AF6EE71
:101CF000007AE0EE077A9FED457AFDEEE77A17EE7F
:101D0000900AF8EEE76A1F28A6EEC60A66EE877A02
:101D1000B1EE666A20DC434A411E26F0004352F8C9
:101D2000212023F0FF03934216D030EE677A30EE85
:101D3000470A002E30EE670A85ED007A85ED010A2C
:101D4000BFF677AFB1EE477AB1EE400A85ED007A83
:101D500085ED010A40426CE730EE677AE21517EE36
:101D6000103AC3F3C753C3EBD453082BDFDD9FED09
:101D7000267A9FED275AF0EE405AE6EE075A70EEAB
:101D8000657AE6EE077AD6EE857A35EEE77A17EED3
:101D9000103AC3F3C753D21A192A10DD9FED227AE5
:101DA0009FED225AB0EE650AA6EE070A75EEC07ADC
:101DB000E6EE077AD6EE857AB7E703236CE7B0EE56
:101DC000650AB4E78A4270EE277A09BF9FED0E7A62
:101DD000DFED0E6ADFED0E6A77EE877A37EEA67AD0
:101DE00077EEC77A80ED007A77EEA67AC0ED017AB9
:101DF0004FF0FF301DE700BFD80F493FE3CB16403F
:101E0000800FC93FD00FC93F0044353743443537B1
:101E100008A3852E800F49430000804384530108A6
:101E200084F9223F0453010800A3852E32318D240A
:101E300038B510EE105A25F00044B4F1A14FF0EE81
:101E4000407A0DD3B4F1FF4F58D8DFED4F7A9FEDB4
:101E50004F7A002DCCBFB0EE470AB0EE670A38BD0E
:101E60004B4B9C4259D8B4F1445F4AD34FF0FF32F8
:101E700027EEA76A9FED475A9FED477ADFED475A55
:101E8000DFED474A66EE066A531CA6EE857AE6EE5B
:101E9000A54A9FED445ADFED445AA7EE265AE4EED8
:101EA000A65A9FED427ADFED424AA5EE267AE5EE8C
:101EB000A64A9FED405ADFED405AA7EE265A9FED05
:101EC0003F7AA4EEA67AE5EE265A27EE267AA5EE0C
:101ED000867A27EE877A35D0394B03EB820393ED70
:101EE000046AD3ED006A37EE467A002D37EE677A42
:101EF00036EEC70AB3DAB1EE400A38BD30EE000A5A
:101F000038BD9FED307A30EE077AF7EE006AB4EE16
:101F1000E67AF1EE10FAA9DD38BDFEF729FF2A4B6B
:101F20009C4212D8A3F5D0039C4223D8F0EE007A4D
:101F3000BFEE007AA0EE277A002230EE270AC7EE25
:101F4000007A95E737EEC70A38BD204B9C420BD884
:101F5000F7EE087AB7EE007AA0EE277A022230EE8A
:101F6000670AC0EE077A83E7BFEE007AC7EE007A11
:101F700003227DE7F7EE007A30EE677A30EE270A2B
:101F80000122C7EE007A73E7DB0FC9BFDB0FC93F41
:101F9000FFFFDF3ED769853C59DA4B3D21A215BDD5
:101FA0006BF16EBD356B883D95879DBD6E2EBA3D3C
:101FB000388EE3BD2549123EABAAAA3ECDCC4CBE1D
:101FC0009C560108CAF24971FFFF973FFFFF1B4073
:101FD00010EE103A33F000411A4627D0B1F1FF4F0E
:101FE00021D213F0FF4F22D1DFED2B7A2B4A60EE86
:101FF000277A904217EE903A33DB4CF2503CC3F311
:10200000C75160451A46A1F1190116DDDFED247AAA
:10201000DFED246A002BB0EE677AB8BFF0EE667A87
:1020200027EE870A704730EE000A704770474CF27F
:10203000503C60454FEAD151E8DC0144FE29E5DC23
:10204000002915DC11F1160F19DB193122F0FF42BE
:1020500042EAC15207EE902A9FED130A27EE800A4A
:102060007047DFED127A07EE103A27EE270A704725
:1020700022F0FF4242EAC15300EE103A7047DFED12
:102080000B7ADFED0B6A002BB0EE677AB8BFF0EE8B
:10209000667A27EE870A70470000004CB03CFFFFCD
:1020A000CAF24971CAF249F1000000336042A20D40
:1020B0006042A28D10B52DED028BB0EE408A044631
:1020C00001F00AF8B0EE480ABDEC028B046010BDC6
:1020D00028B1F1EE407A27EE800A2220EAE7F0EEFE
:1020E000407A27EE800A2220E4E700BF9FED010A34
:1020F000EEE700BF000000109FED010AE8E700BF17
:102100000000007000289FED060AF7EE007ABFEE8F
:10211000007A18BFF0EE477A87EE800A2220C9E7DE
:1021200000000000F0EE407A30EE407AF4EE677A7C
:10213000F1EE10FA87EE070A01D62120BAE77047C0
:102140002DE9F04F2DED048BDBB00C468146114696
:102150006898964A04931E4623460C1D52F8205058
:1021600006F1FF37C0F2AF82CA1E48BF0A1DD21067
:1021700003920132D2000692069A0398EE19A1EB5F
:102180000202A0EB070019D401369FED897ADDF831
:10219000A4C106441EAC9E460028A4BF5CF82030B3
:1021A00007EE903A00F10100ACBFF8EEE77AF0EEEE
:1021B000477AB042E4EC017AEED17346002DC0F2CA
:1021C000D68204981EAC04EB80064FEA800805EB2B
:1021D000000E0DF58C7C3C4609EB8000002FDFEDF6
:1021E000747A09DBB346CA46FAEC016A3BED017A20
:1021F0008245E6EE877AF7D101347445ECEC017A3A
:1022000006F10406EAD10DF1280A0AEB8500CDE9B2
:10221000073104389FED689ADFED668A059009EB77
:102220000804AB460AEB850846AE019510465AAB4A
:1022300003EB8B03BBF1000F13ED140A16DD06EB65
:102240008B03524660EE097AB0EE407AFDEEE77AF3
:1022500073ED016AF8EEE77AB342A7EEE87A37EE5B
:10226000A60ABDEEC77AA2EC017AEBD10290FFF785
:10227000AFFEF4EE007AB0EE408A20EE270A00F0BE
:102280009BFAF2EE007AA0EE678A02980028FDEE33
:10229000C89AF8EEE97A38EE678A6EDD0BF1FF3CFA
:1022A000C0F108035AF82C2042FA03F505FA03F3AB
:1022B000D21AC0F1070119EE903A42FA01F12B440B
:1022C00000294AF82C2009EE903A00F36681B5EE19
:1022D000408AF1EE10FA40F0BA80019B9B450BDD7D
:1022E0000AEB8B03002253F8045D434542EA0502E2
:1022F000F9D1002A40F06F81019B013B5AF823304D
:10230000002B40F05F81059B012153F8042D013122
:10231000002AFAD00BF1010359449C46039D049A0C
:1023200005EB030E0EF1804E699D5A440EF1FF3EFF
:1023300006EB830B1EAB05EB8E0E03EB8205DEED89
:10234000017AF8EEE77A002F0EF1040EE5EC017A3F
:10235000DFED177A09DB2A464B46F3EC016A32EDD2
:10236000017AA342E6EE877AF7D10CF1010C8C4595
:10237000EBEC017AE3DD8B4659E740F004810BF189
:10238000FF335AF82310C9110029A0DD19EE903A45
:10239000BBF1000F03F1010309EE903A40F3EB812A
:1023A0000025D4462A460291864619E0BC5601080B
:1023B00000000000000080430000803B0135AB4579
:1023C00041F8040C40F303810B680CF1080C013553
:1023D000C3F1FF03AB454FF001024CF8043C0DDDA7
:1023E000614651F8043B002A40F0CB80C3F5807071
:1023F000002BE3D10135AB458C46F1DC02997046E8
:1024000000280CDD012800F0D480022807D10BF150
:10241000FF355AF8253003F03F034AF825300229EA
:102420007FF455AFB7EE000A30EE488A002A3FF439
:102430004EAF09910290FFF7CBFD38EE408A02982B
:102440000999B5EE408AF1EE10FA3FF446AF079BCA
:10245000019D029101930899069B0390B0EE480AF2
:10246000581AFFF7B5FD5FED2D6A019B039AB4EE94
:10247000E60AF1EE10FAF0EE407AC0F24E811FED5E
:10248000327A20EE077A0BF10104BDEEC77A0832EA
:10249000B8EEC77AE7EE667ABDEEC77AFDEEE77A68
:1024A00017EE901A4AF82B1017EE101A4AF824105B
:1024B0001046B7EE000A0193FFF78AFD002C019B3E
:1024C000B0EE407AC0F24981601C46AE5FED466ACC
:1024D00081000AEB800206EB800072ED017AF8EED3
:1024E000E77A524567EE877A27EE267A60ED017A21
:1024F000F3D10DF1C8080A1F46A88718C646A4469E
:1025000000269946002DC0F2E380A94BDFEDA97AA1
:102510003846002201E0B24208DCF3EC016AB0EC7C
:10252000017A01329542E6EE877AF4DA0CF1FF3C4B
:10253000BCF1FF3FEEEC017A06F10106A7F10407BA
:10254000E0D1689A022A4B465DDC002A00F3C38082
:102550000ED1DFED987A414431ED017A884577EE6E
:10256000877AF9D1029A0AB1F1EE677AC3ED007A5F
:1025700019EE903A03F007005BB0BDEC048BBDE8A8
:10258000F08F8C4623E7F6EE007AB4EEE78AF1EEA0
:1025900010FA80F28680002199E60133BBF1000F2A
:1025A00009EE903AD8BF00223FF7FAAE01287FF437
:1025B0002CAF0BF1FF355AF8253003F07F034AF8B2
:1025C00025302CE70BF101039C461946A6E602993B
:1025D0007046012214E70BF1FF3402915AF82410DF
:1025E000019D079BA0F1080200297FF461AF0BF168
:1025F000804101390AEB810151F8040D013C083A90
:102600000028F9D054E7689A032AB1D1002C00F0D1
:10261000BE8008EB840595ED007A2A46A000294685
:1026200071ED017AF0EE476A37EE277A414577EE91
:10263000C77A81ED007A77EEA67AC1ED017AEFD103
:10264000012C00F0A48095ED007A08F1040172EDF0
:10265000017AF0EE476A37EE277A914277EEC77A31
:1026600082ED007A77EEA67AC2ED017AEFD1021DF3
:10267000DFED507A424408F1080832ED017A9045C6
:1026800077EE877AF9D1029ADDED326A9DED337AE1
:10269000002A4AD1C3ED006A83ED017AC3ED027AC4
:1026A00066E719EE903ABBF1000F03F1010309EE62
:1026B000903AC8BF02213FF773AEF7EE007A37EECB
:1026C000C88A022103E6082206920022039253E5FB
:1026D000DFED387A2AE7DFED377A414431ED017AD0
:1026E000884577EE877AF9D1029A5ABB9DED327A06
:1026F000C3ED007A77EE677A64B133A90122B1ECB9
:10270000017A0132944277EE877AF8DA029A0AB1B6
:10271000F1EE677AC3ED017A2AE7FDEEC07A5C46F6
:1027200017EE901A4AF82B10C2E6F1EE666AB1EE87
:10273000477AF1EE677AC3ED006A83ED017AC3ED63
:10274000027A15E7DDED326AB1EE677A83ED007A41
:1027500076EEE77A002CD0D1DAE7689A022A12DC0A
:10276000002A17DC7FF404AFDFED127AFAE6049852
:102770004FEA800847E502297FF4A9ADF7EE007A19
:1027800037EEC88AA3E5689A032A7FF4F1AEDFED3D
:10279000097A78E7029A22B90022DDED327A1A60CE
:1027A000B8E74FF00042DDED327A1A60B0E700BFC3
:1027B000C85601080000000010EE102AC2F3C753EB
:1027C0007F3B162B22F0004129DC002B104618DB42
:1027D0001A4919410A4221D0DFED197A70EE277AA1
:1027E000F5EEC07AF1EE10FA18DD002A04DA4FF4A3
:1027F000000242FA03F3184420EA010300EE103A03
:102800007047DFED0F7A70EE277AF5EEC07AF1EEC1
:1028100010FA03DD002A08DB9FED0A0A7047B1F1C8
:10282000FF4FFBD330EE000A7047DFED077A002937
:10283000BFEE000A08BFB0EE670A7047FFFF7F00D7
:10284000CAF249710000000000000080044A0549F6
:102850001368002B08BF0B461844106018467047D9
:10286000D00E0020C89E002081F0004102E000BF91
:1028700083F0004330B54FEA41044FEA430594EA40
:10288000050F08BF90EA020F1FBF54EA000C55EA7B
:10289000020C7FEA645C7FEA655C00F0E2804FEA4C
:1028A0005454D4EB5555B8BF6D420CDD2C4480EA2E
:1028B000020281EA030382EA000083EA010180EA5E
:1028C000020281EA0303362D88BF30BD11F0004FAC
:1028D0004FEA01314FF4801C4CEA113102D04042E2
:1028E00061EB410113F0004F4FEA03334CEA13331D
:1028F00002D0524263EB430394EA050F00F0A78035
:10290000A4F10104D5F1200E0DDB02FA0EFC22FA2F
:1029100005F2801841F1000103FA0EF2801843FA23
:1029200005F359410EE0A5F120050EF1200E012A14
:1029300003FA0EFC28BF4CF0020C43FA05F3C01852
:1029400051EBE37101F0004507D54FF0000EDCF1CB
:10295000000C7EEB00006EEB0101B1F5801F1BD374
:10296000B1F5001F0CD349085FEA30004FEA3C0C78
:1029700004F101044FEA445212F5800F80F09A806E
:10298000BCF1004F08BF5FEA500C50F1000041EB72
:10299000045141EA050130BD5FEA4C0C404141EB76
:1029A0000101013C28BFB1F5801FE9D291F0000F71
:1029B00004BF01460020B1FA81F308BF2033A3F120
:1029C0000B03B3F120020CDA0C3208DD02F1140C17
:1029D000C2F10C0201FA0CF021FA02F10CE002F152
:1029E0001402D8BFC2F1200C01FA02F120FA0CFC4B
:1029F000DCBF41EA0C019040E41AA2BF01EB045194
:102A0000294330BD6FEA04041F3C1CDA0C340EDC91
:102A100004F11404C4F1200220FA04F001FA02F3D4
:102A200040EA030021FA04F345EA030130BDC4F192
:102A30000C04C4F1200220FA02F001FA04F340EA87
:102A40000300294630BD21FA04F0294630BD94F038
:102A5000000F83F4801306BF81F480110134013D1F
:102A60004EE77FEA645C18BF7FEA655C29D094EA90
:102A7000050F08BF90EA020F05D054EA000C04BF0E
:102A80001946104630BD91EA030F1EBF00210020F9
:102A900030BD5FEA545C05D14000494128BF41F098
:102AA000004130BD14F580043CBF01F5801130BDFC
:102AB00001F0004545F0FE4141F470014FF0000087
:102AC00030BD7FEA645C1ABF194610467FEA655C38
:102AD0001CBF0B46024650EA013406BF52EA0335DA
:102AE00091EA030F41F4002130BD00BF90F0000FC8
:102AF00004BF0021704730B54FF4806404F1320404
:102B00004FF000054FF0000150E700BF90F0000FBC
:102B100004BF0021704730B54FF4806404F13204E3
:102B200010F0004548BF40424FF000013EE700BFB3
:102B300042004FEAE2014FEA31014FEA02701FBF43
:102B400012F07F4393F07F4F81F06051704732F075
:102B50007F4208BF704793F07F4F04BF41F40021CC
:102B6000704730B54FF4607401F0004521F000412A
:102B70001CE700BF50EA010208BF704730B54FF0B4
:102B800000050AE050EA010208BF704730B511F0B5
:102B9000004502D5404261EB41014FF4806404F1ED
:102BA00032045FEA915C3FF4D8AE4FF003025FEA73
:102BB000DC0C18BF03325FEADC0C18BF033202EBF7
:102BC000DC02C2F1200300FA03FC20FA02F001FA51
:102BD00003FE40EA0E0021FA02F11444BDE600BFF4
:102BE00070B54FF0FF0C4CF4E06C1CEA11541DBFA3
:102BF0001CEA135594EA0C0F95EA0C0F00F0DEF86E
:102C00002C4481EA030621EA4C5123EA4C5350EA52
:102C1000013518BF52EA033541F4801143F48013A3
:102C200038D0A0FB02CE4FF00005E1FB02E506F034
:102C30000042E0FB03E54FF00006E1FB03569CF089
:102C4000000F18BF4EF0010EA4F1FF04B6F5007F8F
:102C500064F5407404D25FEA4E0E6D4146EB060601
:102C600042EAC62141EA55514FEAC52040EA5E508A
:102C70004FEACE2EB4F1FD0C88BFBCF5E06F1ED834
:102C8000BEF1004F08BF5FEA500E50F1000041EB6B
:102C9000045170BD06F0004646EA010140EA020018
:102CA00081EA0301B4EB5C04C2BFD4EB0C0541EA3A
:102CB000045170BD41F480114FF0000E013C00F34F
:102CC000AB8014F1360FDEBF002001F0004170BD73
:102CD000C4F10004203C35DA0C341BDC04F114048C
:102CE000C4F1200500FA05F320FA04F001FA05F218
:102CF00040EA020001F0004221F0004110EBD370E5
:102D000021FA04F642EB06015EEA430E08BF20EA10
:102D1000D37070BDC4F10C04C4F1200500FA04F3B3
:102D200020FA05F001FA04F240EA020001F0004145
:102D300010EBD37041F100015EEA430E08BF20EAB8
:102D4000D37070BDC4F1200500FA05F24EEA020E00
:102D500020FA04F301FA05F243EA020321FA04F02F
:102D600001F0004121FA04F220EA020000EBD370E6
:102D70005EEA430E08BF20EAD37070BD94F0000FE6
:102D80000FD101F00046400041EB010111F4801F1A
:102D900008BF013CF7D041EA060195F0000F18BFCB
:102DA000704703F00046520043EB030313F4801F07
:102DB00008BF013DF7D043EA0603704794EA0C0FC1
:102DC0000CEA135518BF95EA0C0F0CD050EA4106D7
:102DD00018BF52EA4306D1D181EA030101F0004154
:102DE0004FF0000070BD50EA410606BF104619467C
:102DF00052EA430619D094EA0C0F02D150EA013688
:102E000013D195EA0C0F05D152EA03361CBF1046C8
:102E100019460AD181EA030101F0004141F0FE4167
:102E200041F470014FF0000070BD41F0FE4141F4EB
:102E3000780170BD70B54FF0FF0C4CF4E06C1CEAEB
:102E400011541DBF1CEA135594EA0C0F95EA0C0FA0
:102E500000F0A7F8A4EB050481EA030E52EA03355B
:102E60004FEA013100F088804FEA03334FF080557C
:102E700045EA131343EA12634FEA022245EA1115A9
:102E800045EA10654FEA00260EF000419D4208BF5A
:102E9000964244F1FD0404F5407402D25B084FEA07
:102EA0003202B61A65EB03055B084FEA32024FF4B3
:102EB00080104FF4002CB6EB020E75EB030E22BF10
:102EC000B61A754640EA0C005B084FEA3202B6EBD0
:102ED000020E75EB030E22BFB61A754640EA5C007F
:102EE0005B084FEA3202B6EB020E75EB030E22BF0F
:102EF000B61A754640EA9C005B084FEA3202B6EB10
:102F0000020E75EB030E22BFB61A754640EADC00CE
:102F100055EA060E18D04FEA051545EA16754FEA30
:102F200006164FEAC30343EA52734FEAC2025FEA4E
:102F30001C1CC0D111F4801F0BD141EA00014FF0DD
:102F400000004FF0004CB6E711F4801F04BF0143AE
:102F50000020B4F1FD0C88BFBCF5E06F3FF6AFAECA
:102F6000B5EB030C04BFB6EB020C5FEA500C50F15A
:102F7000000041EB045170BD0EF0004E4EEA1131DD
:102F800014EB5C04C2BFD4EB0C0541EA045170BDE4
:102F900041F480114FF0000E013C90E645EA060E28
:102FA0008DE60CEA135594EA0C0F08BF95EA0C0F56
:102FB0003FF43BAF94EA0C0F0AD150EA01347FF49E
:102FC00034AF95EA0C0F7FF425AF104619462CE775
:102FD00095EA0C0F06D152EA03353FF4FDAE1046D8
:102FE000194622E750EA410618BF52EA43067FF429
:102FF000C5AE50EA41047FF40DAF52EA43057FF4B9
:10300000EBAE12E74FEA4102B2F1E04324BFB3F561
:10301000001CDCF1FE5C0DD901F0004C4FEAC0024F
:103020004CEA5070B2F1004F40EB830008BF20F033
:103030000100704711F0804F21D113F13872BCBFED
:1030400001F00040704741F480114FEA5252C2F142
:103050001802C2F1200C10FA0CF320FA02F018BF8B
:1030600040F001004FEAC1234FEAD32303FA0CFCDE
:1030700040EA0C0023FA02F34FEA4303CCE77FEA6D
:10308000625307D150EA01331EBF4FF0FE4040F4B7
:103090004000704701F0004040F0FE4040F4000066
:1030A000704700BF53B94AB9002908BF00281CBFA8
:1030B0004FF0FF314FF0FF3000F00CB8ADF1080CCD
:1030C0006DE904CE11F02AFFDDF804E0DDE902230A
:1030D00004B07047704700BF014B1868704700BFCD
:1030E0000000002010B5054C237833B9044B13B110
:1030F0000448AFF300800123237010BDD40E0020DC
:1031000000000000BC51010808B5034B1BB1034986
:103110000348AFF3008008BD00000000D80E002077
:10312000BC51010808B50268034B9A4200D008BDA3
:1031300004F0C6FCFBE700BF0020004072B6FEE7CB
:1031400000B595B03022002108A8FDF761F90023F1
:10315000039304930593069307930193204A116CFC
:1031600041F080511164126C02F080520192019A78
:1031700002931C4B1A6842F480421A601B6803F4E5
:1031800080430293029B012308934FF480330993F9
:1031900002230E934FF480020F9206221092A8226F
:1031A000119212930723139308A803F095FB98B983
:1031B0000F23039302230493002305934FF4A0539A
:1031C00006934FF480530793052103A803F0D4FD21
:1031D00020B915B05DF804FBFFF7B0FFFFF7AEFFB5
:1031E000003802400070004008B504F04FFCFFF7C3
:1031F000A7FF00F02FF800F0DFFA00F02BF900F045
:1032000079F900F099F900F0B7FC00F08FFF00F0B9
:10321000E5FF01F027F900F049FC00F06FFC00F039
:10322000F5FE01F0CBF801F003F901F03BF901F0F4
:103230003FF800F025FB00F041FB00F0C1FC00F07E
:103240003DFA00F063FA11F029FB00F0EBF808F00A
:1032500051FDFEE72DE9F0438FB0002409940A9454
:103260000B940C940D9400945F4B1A6B42F0020285
:103270001A631A6B02F002020092009A01941A6B10
:1032800042F040021A631A6B02F040020192019A66
:1032900002941A6B42F001021A631A6B02F00102E7
:1032A0000292029A03941A6B42F008021A631A6B94
:1032B00002F008020392039A04941A6B42F004028B
:1032C0001A631A6B02F004020492049A05941A6BB2
:1032D00042F480721A631A6B02F480720592059AA6
:1032E00006941A6B42F020021A631A6B02F0200255
:1032F0000692069A07941A6B42F080021A631A6BC0
:1033000002F080020792079A08941A6B42F01002AA
:103310001A631B6B03F010030893089B334F22467C
:103320004021384604F0D4F8314E012210213046B5
:1033300004F0CEF8DFF8C08001221146404604F0C8
:10334000C7F84023099301250A950B940C9409A909
:10335000384603F0C7FF082309934FF40419CDF84A
:1033600028900B9509A9384603F0BCFF09950A94EB
:103370000B9509A9304603F0B5FF102309930A9570
:103380000B9502270C9709A9304603F0ABFF3023B9
:103390000993CDF828900B9409A9164803F0A2FFD1
:1033A00009950A950B950C9709A9404603F09AFFD9
:1033B00022460521092004F04BFB092004F058FBAC
:1033C000224605210A2004F043FB0A2004F050FBAA
:1033D00022460521172004F03BFB172004F048FB90
:1033E0000FB0BDE8F08300BF003802400018024073
:1033F00000000240000802400004024008B501F04D
:10340000D5F9002008F0AEFC08BD0000034B0360B6
:10341000034B0B6080231360704700BFF010002047
:10342000F00E002010B588B00DF1040C074C0FCC45
:10343000ACE80F0094E807008CE80700002101A821
:1034400008F05DFC024B186008B010BDD4510108B3
:103450005411002000B585B000230093019302931E
:1034600003931548154A02604FF4003242608360AE
:103470000361037680F82030C362114A8262C36020
:103480000122C26180F83030426104F0D9FB68B992
:1034900010230093012301930023029369460648F9
:1034A00004F0FAFB28B905B05DF804FBFFF746FE0F
:1034B000EEE7FFF743FEF6E7581100200020014039
:1034C0000100000F0268094B9A4200D0704782B099
:1034D00000230193064B5A6C42F480725A645B6C71
:1034E00003F480730193019B02B0704700200140F8
:1034F0000038024008B50E480E4B036003234360BA
:1035000000238360C3604FF4102202614FF4001265
:1035100042610376012242768376C2760377427750
:1035200004F084FC00B908BDFFF708FEFBE700BF0C
:10353000CC1100200064004008B50E480E4B03601B
:103540000323436000238360C3604FF410220261B1
:103550004FF4001242610376012242768376C276EE
:103560000377427704F062FC00B908BDFFF7E6FD7F
:10357000FBE700BFA41100200068004010B58AB02E
:103580000023059306930793089309930368454A1C
:10359000934204D0444A93423CD00AB010BD434AFF
:1035A000136801331360012B27D000240194404B92
:1035B0001A6B42F008021A631B6B03F008030193B5
:1035C000019B032305930222069208930923099382
:1035D00005A9384803F086FE22460521142004F090
:1035E00037FA142004F044FA22460521152004F08D
:1035F0002FFA152004F03CFACFE7002300932C4B60
:103600001A6C42F000721A641B6C03F00073009392
:10361000009BCAE700230293254B1A6C42F080629C
:103620001A641B6C03F080630293029B1F4A1368A9
:1036300001331360012B28D0002404941C4B1A6B17
:1036400042F002021A631B6B03F002030493049B13
:103650006023059302230693032308930923099308
:1036600005A9154803F03EFE22460521402004F03E
:10367000EFF9402004F0FCF922460521412004F036
:10368000E7F9412004F0F4F987E700230393084B9E
:103690001A6C42F000721A641B6C03F000730393FF
:1036A000039BC9E70064004000680040A0110020AF
:1036B00000380240000C02400004024008B50548F2
:1036C000054B036004F0B6FF00B908BDFFF736FDF7
:1036D000FBE700BFF4110020003002400268094BF4
:1036E0009A4200D0704782B000230193064B1A6BB8
:1036F00042F480521A631B6B03F480530193019BC5
:1037000002B07047003002400038024000B583B07C
:103710000023009301930C480C4B036004F099FFC5
:1037200058B900230093019310226946064804F01B
:10373000A2FF28B903B05DF804FBFFF7FFFCF0E738
:10374000FFF7FCFCF6E700BFFC110020007400400E
:1037500000B589B000230393049305930693079360
:103760000268134B9A4202D009B05DF804FB0021B5
:10377000019103F5E2331A6C42F000521A641A6C9C
:1037800002F000520192019A02911A6B42F001027A
:103790001A631B6B03F001030293029B2023039324
:1037A0000323049303A9034803F09CFDDCE700BF57
:1037B000007400400000024010B582B00024009464
:1037C0002E4B1A6B42F480021A631A6B02F48002C9
:1037D0000092009A01941A6B42F400121A631B6B58
:1037E00003F400130193019B224605210C2004F0F1
:1037F0002FF90C2004F03CF9224605210D2004F09D
:1038000027F90D2004F034F9224605212F2004F079
:103810001FF92F2004F02CF922462146382004F00D
:1038200017F9382004F024F9224605213A2004F043
:103830000FF93A2004F01CF9224621463B2004F0FF
:1038400007F93B2004F014F922462146442004F0F5
:10385000FFF8442004F00CF922460521452004F02D
:10386000F7F8452004F004F922460521462004F02B
:10387000EFF8462004F0FCF802B010BD003802401A
:1038800008B50B480B4B03600B4B43600023836070
:10389000C3604FF48042026143618361C36103628C
:1038A00005F0EAF800B908BDFFF748FCFBE700BFE8
:1038B0002413002000580040801A060008B50B4869
:1038C0000B4B03600B4B436000238360C3604FF4DA
:1038D0008042026143618361C361036205F0CCF8F9
:1038E00000B908BDFFF72AFCFBE700BFD01200209B
:1038F000005C0040801A06002DE9F0418AB00023E8
:103900000593069307930893099303685D4A9342CE
:1039100005D05D4A934269D00AB0BDE8F081044603
:1039200000250095594E336B43F020033363336B0E
:1039300003F020030093009B0323059312220692B9
:1039400008930423099305A9514803F0CBFC019582
:10395000336C43F480033364336C03F480030193CA
:10396000019B4C484C4B03604FF0606343608560A3
:10397000C5604FF48063036145618561C56105627F
:10398000456203F035FE58BB424BA3639C6343483A
:10399000434B03604FF06063436040238360002328
:1039A000C3604FF48062026143618361C36103625B
:1039B000436203F01DFEB0B9384B63639C63002281
:1039C0000521212004F044F8212004F051F80022C0
:1039D0000521222004F03CF8222004F049F89BE75E
:1039E000FFF7ACFBD0E7FFF7A9FBE5E70025029561
:1039F000264C236B43F004032363236B03F004037F
:103A00000293029B0395236B43F001032363236B13
:103A100003F001030393039B4FF4007305934FF0EE
:103A20001208CDF81880032708970426099605A9DF
:103A30001C4803F057FC4FF480730593CDF81880B1
:103A400007950897099605A9174803F04BFC0495BC
:103A5000236C43F400032364236C03F400030493F6
:103A6000049B2A460521482003F0F2FF482003F07A
:103A7000FFFF2A460521492003F0EAFF492003F011
:103A8000F7FF49E700580040005C00400038024062
:103A9000001402407012002040600240101200200A
:103AA000B8600240000802400000024008B5054826
:103AB000054B036005F0DCFE00B908BDFFF73EFBD7
:103AC000FBE700BF78130020000806500268094B8E
:103AD0009A4200D0704782B000230193064B5A6B84
:103AE00042F040025A635B6B03F040030193019B79
:103AF00002B07047000806500038024008B50A4876
:103B00000A4B0360002343607C22826040F67F42C0
:103B1000C26003614361836105F012FF00B908BD13
:103B2000FFF70CFBFBE700BF8813002000280040D4
:103B300000B585B0002300930193029303930268BC
:103B40000A4B9A4202D005B05DF804FB02230093B1
:103B5000074B0393684603F003FA20B9054B012293
:103B6000C3F83C2EEFE7FFF7E9FAF7E7002800403B
:103B700000031E000000474208B50F480F4B0360CA
:103B80004FF48273436000238360C36002220261AA
:103B9000012242614FF4007282611022C26103620D
:103BA000436283620A23C36205F0AAFF00B908BD1D
:103BB000FFF7C4FAFBE700BFC0140020003001404B
:103BC00008B50F480F4B03604FF482734360002326
:103BD0008360C36002220261012242614FF40072DD
:103BE00082613822C2610362436283620A23C36234
:103BF00005F086FF00B908BDFFF7A0FAFBE700BF9C
:103C000068140020003800402DE9F0438BB00023F9
:103C10000593069307930893099303685C4A9342BC
:103C200006D05C4A934200F087800BB0BDE8F08379
:103C3000044600250095584B5A6C42F480525A6451
:103C40005A6C02F480520092009A01951A6B42F06D
:103C500002021A631A6B02F002020192019A0295A3
:103C60001A6B42F001021A631B6B03F0010302930B
:103C7000029B182305934FF00209CDF818904FF0DE
:103C80000108CDF81C80032608960527099705A989
:103C9000424803F027FB80230593CDF81890CDF818
:103CA0001C800896099705A93D4803F01BFB3D4879
:103CB0003D4B03604FF0C06343608560C5604FF4C7
:103CC0008063036145618561C5614FF440330362E0
:103CD000042343628662C562056303F089FC28BB46
:103CE000304BE3649C633148314B03604FF0C06359
:103CF0004360402383600023C3604FF4806202610D
:103D000043618361C3614FF440320262436203F056
:103D10006FFC70B9254BA3649C630022052123200E
:103D200003F096FE232003F0A3FE7EE7FFF706FADA
:103D3000D6E7FFF703FAEDE700240394164B1A6C5D
:103D400042F480421A641A6C02F480420392039A8D
:103D500004941A6B42F002021A631B6B03F0020315
:103D60000493049B4FF460430593022306930323BB
:103D700008930525099505A9084803F0B3FA2246DA
:103D80002946242003F064FE242003F071FE4CE752
:103D9000003001400038004000380240000402407A
:103DA000000002400814002010640240A813002004
:103DB0005864024000B587B003682C4A934218D07B
:103DC0002B4A934224D02B4A93422ED02A4A934224
:103DD00038D02A4A934218D100230593284B5A6CB5
:103DE00042F400325A645B6C03F400330593059B84
:103DF0000BE000230193224B5A6C42F001025A64FB
:103E00005B6C03F001030193019B07B05DF804FBB9
:103E1000002302931A4B1A6C42F004021A641B6CC2
:103E200003F004030293029BEFE700230393144B78
:103E30001A6C42F008021A641B6C03F00803039327
:103E4000039BE2E7002204920D4B596C41F0020102
:103E500059645B6C03F002030493049B0F212D2033
:103E600003F0F6FD2D2003F003FECEE70000014035
:103E700000080040000C00400004014000440140E4
:103E80000038024070B58CB0002307930893099363
:103E90000A930B930368514A93420DD0504A9342C0
:103EA00022D0504A93423AD04F4A934251D04F4A7F
:103EB000934279D00CB070BD002301934C4B1A6B28
:103EC00042F010021A631B6B03F010030193019B75
:103ED0004FF4D44307930223089301230B9307A9BC
:103EE000444803F0FFF9E5E700230293404B1A6BC7
:103EF00042F008021A631B6B03F008030293029B53
:103F00004FF480430793022308930122099203226E
:103F10000A920B9307A9384803F0E4F9CAE7002393
:103F20000393334B1A6B42F080021A631B6B03F04E
:103F300080030393039B4FF4E053079302230893FA
:103F4000012209920A930B9307A92C4803F0CAF99E
:103F5000B0E700240494264B1A6B42F480721A6373
:103F60001A6B02F480720492049A05941A6B42F060
:103F700004021A631B6B03F004030593059BC02323
:103F800007930226089603250B9507A91C4803F002
:103F9000A9F940230793089609940A940B9507A959
:103FA000184803F09FF985E700230693104B1A6B1E
:103FB00042F020021A631B6B03F020030693069B5A
:103FC0004023079302230893012209920A930323B3
:103FD0000B9307A90C4803F085F96BE7000001403B
:103FE00000080040000C0040000401400044014073
:103FF0000038024000100240000C0240001C024049
:1040000000200240000802400014024010B596B0A3
:1040100000241294139414941594109411940994F8
:104020000A940B940C940D940E940F942022214624
:1040300001A8FCF7EDF93B483B4B0360A723436025
:10404000846044F61F63C36004614461846106F0C8
:104050009FF900284BD14FF48053129312A9314895
:1040600006F0FCFA002845D12E4806F0E9F90028B0
:1040700043D100231093119310A92A4806F0FEFBA8
:1040800000283DD16023099300220A920B920C92E2
:104090000D920E920F9209A9224806F064FA0028A8
:1040A00031D1042209A91F4806F05DFA70BB08222D
:1040B00009A91C4806F057FA58BB0C2209A919484F
:1040C00006F051FA40BB002301930293039304933B
:1040D00005934FF400520692089301A9114806F087
:1040E00013FCE0B90F48FFF7CDFE16B010BDFFF787
:1040F00025F8B0E7FFF722F8B6E7FFF71FF8B8E7B3
:10410000FFF71CF8BEE7FFF719F8CAE7FFF716F844
:10411000CDE7FFF713F8D0E7FFF710F8D3E7FFF785
:104120000DF8DFE7381600200000014000B58FB021
:1041300000230A930B930C930D9308930993019317
:104140000293039304930593069307932148224A0D
:104150000260A722426083604FF6FF72C260036173
:10416000836106F015F928BB4FF480530A930AA91E
:10417000184806F073FA00BB164806F061F9F8B962
:1041800000230893099308A9124806F077FBD0B9D9
:10419000602301930023029303930593082201A94E
:1041A0000C4806F0E0F988B90A48FFF76BFE0FB03B
:1041B0005DF804FBFEF7C2FFD6E7FEF7BFFFDBE7C3
:1041C000FEF7BCFFDCE7FEF7B9FFE1E7FEF7B6FF5D
:1041D000EAE700BFF01500200008004000B58FB0EE
:1041E00000230A930B930C930D9308930993019367
:1041F0000293039304930593069307932A482B4A4B
:104200000260436083604FF6FF72C26003618361A6
:1042100006F0BEF8002831D14FF480530A930AA962
:10422000214806F01BFA60BB1F4806F009F958BB8D
:1042300000230893099308A91B4806F01FFB30BB15
:1042400060230193002202920392059201A916486D
:1042500006F089F9F0B904220DEB0201124806F0CC
:1042600082F9D0B9082201A90F4806F07CF9B8B943
:104270000D48FFF707FE0FB05DF804FBFEF75EFF89
:10428000CAE7FEF75BFFCFE7FEF758FFD0E7FEF780
:1042900055FFD5E7FEF752FFDDE7FEF74FFFE1E7F9
:1042A000FEF74CFFE4E700BFA8150020000C00401B
:1042B00010B596B00024129413941494159410948D
:1042C000119409940A940B940C940D940E940F94E9
:1042D0002022214601A8FCF79BF83648364B0360A4
:1042E000A7234360846044F61F63C3600461446194
:1042F000846106F04DF8002843D14FF480531293A7
:1043000012A92C4806F0AAF900283DD1294806F048
:104310006BF800283BD100231093119310A9254876
:1043200006F0ACFA002835D1002209920A920B92CD
:104330000C920D920E920F9209A91E4806F0E4F815
:1043400058BB042209A91B4806F0DEF840BB08222E
:1043500009A9184806F0D8F828BB00230193029356
:104360000393049305934FF400520692089301A916
:10437000104806F0C9FAC8B90E48FFF783FD16B019
:1043800010BDFEF7DBFEB8E7FEF7D8FEBEE7FEF78E
:10439000D5FEC0E7FEF7D2FEC6E7FEF7CFFED0E7B8
:1043A000FEF7CCFED3E7FEF7C9FED6E7FEF7C6FE62
:1043B000E2E700BF601500200004014000B589B0AD
:1043C00000230193029303930493059306930793A9
:1043D0001548164A0260A7224260836041F2873284
:1043E000C2600361836105F0D3FFA0B90E4806F0F7
:1043F00027F898B960230193002202920392059254
:1044000001A9094806F0AFF858B90748FFF73AFD87
:1044100009B05DF804FBFEF791FEE7E7FEF78EFEBC
:10442000E8E7FEF78BFEF0E7181500200044014096
:1044300008B50A480A4B03604FF461234360002328
:104440008360C36003610C2242618361C36106F033
:10445000BFFB00B908BDFEF771FEFBE7E8180020BE
:104460000010014008B50C480C4B03600C4B436036
:104470004FF4805383600023C3604FF48062026175
:104480000C2242618361C36106F0A2FB00B908BD42
:10449000FEF754FEFBE700BFA418002000480040D0
:1044A000A086010008B50A480A4B03604FF4E133C7
:1044B000436000238360C36003610C224261836117
:1044C000C36106F085FB00B908BDFEF737FEFBE7C8
:1044D00060180020001401402DE9F0418CB0044622
:1044E00000230793089309930A930B9303689D4A4B
:1044F00093420AD09C4A934200F082809B4A9342A6
:1045000000F0C3800CB0BDE8F08100250095984B09
:104510005A6C42F010025A645A6C02F01002009277
:10452000009A01951A6B42F002021A631A6B02F0AC
:1045300002020192019A02951A6B42F001021A637B
:104540001B6B03F001030293029B802307934FF040
:104550000208CDF8208003270A9707260B9607A9A3
:10456000844802F0BFFE4FF400730793CDF820801B
:1045700009950A970B9607A97F4802F0B3FE7F487A
:104580007F4B03604FF00063436040238360C5604E
:104590004FF48063036145618561C5614FF4403329
:1045A0000362456203F024F820BB744B63639C6391
:1045B0007448754B03604FF00063436000238360D1
:1045C000C3604FF48062026143618361C3614FF451
:1045D00040320262436203F00BF870B9694BA36387
:1045E0009C6300220521252003F032FA252003F0E8
:1045F0003FFA87E7FEF7A2FDD7E7FEF79FFDEDE75D
:10460000002503955A4B1A6C42F480221A641A6CE6
:1046100002F480220392039A04951A6B42F004027A
:104620001A631B6B03F004030493049B4FF4406371
:1046300007930223089303230A9307230B9307A9E5
:10464000524802F04FFE5248524B03604FF0006355
:1046500043608560C5604FF4806303614561856197
:10466000C5610562456202F0C3FF58B9484BA363B8
:104670009C6300220521272003F0EAF9272003F09C
:10468000F7F93FE7FEF75AFDF0E700250595384BAF
:104690005A6C42F020025A645A6C02F020020592D1
:1046A000059A06951A6B42F040021A631B6B03F0E1
:1046B00040030693069B4FF4844307930223089319
:1046C00003260A9608230B9307A9334802F00AFE33
:1046D0003248334B03604FF0206343608560C56010
:1046E0004FF48063036145618561C5614FF4003318
:1046F0000362042343628662C562056302F078FFA9
:1047000050BB264BA3639C632648274B03604FF0A6
:1047100020634360402383600023C3604FF48062C2
:10472000026143618361C3614FF40032026204227B
:10473000426203228262C362036302F059FF70B9CE
:10474000184B63639C6300220521472003F080F926
:10475000472003F08DF9D5E6FEF7F0FCD1E7FEF730
:10476000EDFCEDE70010014000480040001401405E
:1047700000380240000402400000024000180020FF
:10478000B8640240A017002088640240000802407C
:10479000401700202860024000180240E016002068
:1047A0004064024080160020A064024008B5002248
:1047B0000F49104807F094FD70B90F490D4807F0F4
:1047C000A6FD60B90D490B4808F08CFD50B90948A9
:1047D00007F0BDFD48B908BDFEF7B0FCEDE7FEF7F8
:1047E000ADFCEFE7FEF7AAFCF1E7FEF7A7FCF2E766
:1047F000840000202C19002008010020A0000020C7
:1048000070B52DED028B88B00023039304930593BC
:10481000069307930368B3F1A04F03D008B0BDEC33
:10482000028B70BD00250195224C236B43F00103E0
:104830002363236B03F001030193019B4FF4E053C7
:10484000039302230493032306930A2307931A4E28
:1048500003A9304602F046FD636B43F080036363B7
:104860000295636C43F480436364636C03F4804398
:104870000293029B2A460521432003F0E9F84320D6
:1048800003F0F6F82A464FF48051304602F020FE3D
:104890009FED0A8AB0EE480A08F0EAFE01224FF4C2
:1048A0008051304602F014FEB0EE480A08F0E0FEF7
:1048B000B4E700BF0038024000000240CDCCCC3D40
:1048C00008B500F2C441D0F8080507F056FD08BD50
:1048D00008B501EBC10300EB8303D3F88C22D0F8B9
:1048E000080507F017FE08BD08B501EBC10300EB92
:1048F0008303DA6CD0F8080507F06EFE08BD08B532
:10490000D0F8080507F0B1FD08BD10B50446C3682E
:104910003BB1022B01D1012104E0FEF70FFC012184
:1049200000E00021D4F8080507F085FDD4F808055B
:1049300007F04FFD10BD000010B50446D0F8080583
:1049400007F07CFD2268D2F8003E43F00103C2F874
:10495000003E236A23B1034A136943F0060313613F
:1049600010BD00BF00ED00E008B5D0F8080507F065
:104970006FFD08BD08B5D0F8080507F09EFD08BD1D
:1049800008B5D0F8080507F081FD08BD08B5D0F8D6
:10499000080507F0A9FD08BD08B5D0F8080507F01F
:1049A000A5FD08BD02780AB10020704710B5034686
:1049B0001548C0F80835C3F8C8024FF0A04303609B
:1049C000042343600222C260002303618261C36149
:1049D00003624362C362036300F040FB80B90A4C88
:1049E0008021204601F038F940220021204601F0C4
:1049F0000DF980220121204601F008F9002010BDA8
:104A0000FEF79CFBEBE700BF281E0020D0F8C83261
:104A100011F0800F08D101F07F0101EBC10103EB20
:104A2000810393F87E02704701F07F0101EBC10121
:104A300003EB810393F83E00704708B5D0F8C80235
:104A400000F02FFD08BD000000487047081C002042
:104A50007047032805D8DFE800F0050402050120AF
:104A600070470320704708B5D0F8C80200F08DFBEE
:104A7000FFF7EFFF08BD08B594461A466346D0F825
:104A8000C80200F061FCFFF7E4FF08BD08B5D0F8EC
:104A9000C80200F09EFCFFF7DCFF08BD08B5D0F8A7
:104AA000C80200F036FDFFF7D4FF08BD08B5D0F806
:104AB000C80200F072FDFFF7CCFF08BD08B5D0F8C2
:104AC000C80200F02DFCFFF7C4FF08BD08B5D0F800
:104AD000C80200F0EFFCFFF7BCFF08BD08B5D0F836
:104AE000C80200F0AFFCFFF7B4FF08BD12230B8033
:104AF000004870477000002004230B800048704776
:104B00006C000020002393421ED200B510E00CF18F
:104B1000370C01F813C000014FEA430C0CF1010CF3
:104B20004FF0000E01F80CE00133DBB2934209D2E2
:104B30004FEA107CB0F1204FE9D20CF1300C01F8B3
:104B400013C0E8E75DF804FB7047000038B50B4B75
:104B5000D3F8100AD3F8144AD3F8183AC01800D181
:104B600038BD074D08222946FFF7CCFF042205F186
:104B700010012046FFF7C6FFF2E700BF0070FF1FDD
:104B80005200002008B51A230B80FFF7DFFF014811
:104B900008BD00BF5000002008B50A4628B90549E5
:104BA000054808F01EF9034808BD0249024808F00C
:104BB00018F9F8E7342300200057010810B50A4619
:104BC000034C2146034808F00CF9204610BD00BFF5
:104BD000342300201457010808B50A4628B90549AE
:104BE000054808F0FEF8034808BD0249024808F0ED
:104BF000F8F8F8E7342300202457010808B50A46DE
:104C000028B90549054808F0ECF8034808BD0249F1
:104C1000024808F0E6F8F8E734230020305701088E
:104C2000002070470020704708B5034B1B680BB18C
:104C300008889847002008BD3835002038B50C4654
:104C4000074D0146284608F066FB284608F08AFB17
:104C5000044B1B680BB120889847002038BD00BF6B
:104C60002C1900203435002010B5064C00220649CE
:104C7000204608F042FB0549204608F04CFB002086
:104C800010BD00BF2C19002034250020342D002039
:104C9000094BD3F8BC32D3F814320BB10120704762
:104CA00010B5054C0A460146204608F026FB204672
:104CB00008F03DFB10BD00BF2C190020024B18600E
:104CC000024B196002487047383500203435002007
:104CD000342D0020FEE770477047FDE7FEE7FEE752
:104CE000FEE7704708B502F02DFA08BD08B50820A8
:104CF00002F0F4FB08BD08B5102002F0EFFB08BD80
:104D000008B5024802F06CFD08BD00BF4017002046
:104D100008B5024802F064FD08BD00BF7012002013
:104D200008B5024803F05EFB08BD00BFCC110020AF
:104D300008B5024803F056FB08BD00BFCC110020A7
:104D400008B5202002F0CAFB08BD000008B50248E3
:104D500004F05CFC08BD00BF2413002008B5024825
:104D600004F024FD08BD00BF2413002008B502484C
:104D700005F042F808BD00BFC014002008B5024885
:104D800005F03AF808BD00BF6814002008B50248D5
:104D900006F010F908BD00BFE818002008B5024869
:104DA00006F008F908BD00BFA418002008B50348A4
:104DB00005F0CDF9024805F0CAF908BD60150020DC
:104DC0003C35002008B5024802F00AFD08BD00BFCE
:104DD0001012002008B5024802F002FD08BD00BF15
:104DE0000814002008B5024802F0FAFC08BD00BF14
:104DF000E016002008B5024802F0F2FC08BD00BF32
:104E0000A813002008B5024803F0ECFA08BD00BF63
:104E1000A411002008B5024803F0E4FA08BD00BF61
:104E2000A411002008B5024800F00CFC08BD00BF2A
:104E3000281E002008B5024802F0D2FC08BD00BFC1
:104E4000A017002008B5024802F0CAFC08BD00BF48
:104E50008016002008B5024802F0C2FC08BD00BF61
:104E60000018002008B5024806F0A4F808BD00BFED
:104E70006018002008B5024804F0C8FB08BD00BF58
:104E8000D012002008B5024804F090FC08BD00BF15
:104E9000D012002010B582B000240094114B5A6C3F
:104EA00042F480425A645A6C02F480420092009AA2
:104EB00001941A6C42F080521A641B6C03F0805308
:104EC0000193019B22460F216FF0010002F0C0FD0B
:104ED00022460621042002F0BBFD042002F0C8FD9A
:104EE00002B010BD0038024030B589B0044600233E
:104EF0000193214B1A6C42F480721A641B6C03F408
:104F000080730193019B02A903A802F00BF8069B92
:104F1000CBB901F0E7FF0346184AA2FB03239B0C21
:104F2000013B1748174A026040F2E732C260436013
:104F3000002303618360836105F02AFA054630B1DE
:104F4000284609B030BD01F0CDFF4300E4E70C482E
:104F500005F0B4F805460028F2D12D2002F088FDB6
:104F60000F2C01D90125EBE7002221462D2002F06C
:104F70006FFD054B1C60E3E70038024083DE1B43F6
:104F80003C35002000200040B80000202DE9F0430F
:104F900083B0D0F8008001EBC10300EB8303DA6D2E
:104FA0005B6D9A4254D807460C469B1A01EBC1022E
:104FB00000EB8202926C9A4200D31A4602F1030976
:104FC0004FEA990915E006F103094FEA990904EB44
:104FD000C40507EB8505E96C3B7C0093B3B2E2B2F4
:104FE000404601F002FAEB6C3344EB64EB6D334462
:104FF000EB6508EB441303F510639B699BB24B45CB
:1050000012D304EBC40307EB8303DA6D5B6D9A42A2
:105010000AD24BB19B1A04EBC40207EB8202966CD6
:105020009E42D0D31E46CEE704EBC40307EB8307B2
:105030007A6DFB6D9A420FD804F00F040122A24052
:10504000D8F8343823EA0203C8F83438002000E0E6
:10505000012003B0BDE8F0830020FAE770B58AB004
:10506000002800F090800546046890F8BD343BB3FA
:10507000032385F8BD34E36B13F4807F01D1002353
:105080002B61286800F0D4FE2C4654F8106BEC46D7
:105090000FCCACE80F000FCCACE80F0094E8030095
:1050A0008CE803002B1D0ECB304600F003FE0446B7
:1050B00058B1022385F8BD34012420460AB070BDE2
:1050C00080F8BC34FFF79CFBD2E70021286801F090
:1050D00094FB234616E003EBC30205EB8202012199
:1050E00082F83D1082F83C30A2F84430002182F86A
:1050F00040109164D16403EBC30205EB8202516559
:105100000133DBB269688B42E5D316E004EBC403DC
:1051100005EB8303002283F87D2283F87C4283F829
:105120008022C3F88822C3F88C2204EBC40305EB69
:105130008303C3F894220134E4B2A142E6D82C469A
:1051400054F8106BEC460FCCACE80F000FCCACE879
:105150000F0094E803008CE803002B1D0ECB3046B3
:1051600000F0C2FE044620B1022385F8BD340124BC
:10517000A3E7002385F83830012385F8BD3428687B
:1051800001F0FAFA99E7012497E7026890F8BC3435
:10519000012B19D010B50446012380F8BC34836A72
:1051A000012B09D0206800F03DFE206801F0D6FAFE
:1051B000002084F8BC0410BD8369012BF2D0936BEE
:1051C00043F480339363EDE70220704770B50446E3
:1051D0000D460068066C00EB411303F530639A68D6
:1051E0002169012911D038498E4256D03DB905EBCD
:1051F000C50304EB8303D3F89432002B5ED0E9B2ED
:105200002046FFF765FB002070BD12F0080F09D0A3
:105210002E498E42F7D912F4004FF4D04FF40042D9
:105220009A60F0E712F0200F02D020229A60EAE79D
:1052300012F0280FE7D125498E4206D912F4004F0B
:1052400003D04FF400429A60DDE705EBC50204EBA2
:105250008202D2F898121B69C3F31203CB1AC2F868
:105260009C327DB905EBC50204EB8202D2F8942290
:105270006AB105EBC50204EB8202D2F88C12194424
:10528000C2F88C12E9B22046FFF722FBBBE704F21A
:10529000C442012101F0F0FAF4E712F4004F03D008
:1052A0004FF400429A60AEE712F0200F01D02022A6
:1052B0009A60E9B22046FFF70BFBA4E704F2C44270
:1052C000002101F0D9FA9AE70A31544F0A30544FBD
:1052D00038B5044603681D6C03EB4113D3F8081B73
:1052E0000E4A954207D903F5306311F4004F02D0FE
:1052F0004FF400429A602046FFF7E2FA074B9D42C6
:1053000002D92369012B01D0002038BD04F2C44228
:105310000121206801F0B0FAF6E700BF0A30544FCF
:1053200090F8BC34012B0DD010B50446012380F851
:10533000BC3480F83810006801F000FA002084F8CE
:10534000BC0410BD0220704738B505468C4611F0EC
:10535000800F29D101F00F0E0EEBCE04A40004F54E
:105360001E740444211D0EEBCE0E00EB8E0E0020A9
:105370008EF87D020CF00F0C81F800C0CA600B7132
:105380004A780AB1A1F808C0022B1DD095F8BC34A8
:10539000012B1CD0012385F8BC34286800F07DFE69
:1053A000002085F8BC0438BD01F00F0000EBC001FF
:1053B000890038312944043100EBC00005EB80003E
:1053C000012480F83D40D5E700234B71DEE7022041
:1053D000E9E710B504460A4611F0800F20D101F02C
:1053E0000F0000EBC0039B0003F51E732344191D3F
:1053F00000EBC00004EB8000002380F87D3202F057
:105400000F020A7094F8BC34012B19D0012384F8E0
:10541000BC34206800F08EFE002084F8BC0410BD6F
:1054200001F00F0000EBC0039B0038332344191D2B
:1054300000EBC00004EB8000012380F83D30DEE784
:105440000220ECE710B501F00F0404EBC401890061
:1054500001F51E710144043104EBC40C00EB8C0C0B
:10546000CCF88C22CCF894320023CCF89C328CF807
:105470007D328CF87C420369012B06D064B9DAB224
:10548000006800F0C7FE002010BD04EBC40C00EB68
:105490008C0CCCF89022F1E7DAB2006800F0BCFF87
:1054A000F1E701F00F0101EBC10100EB8100D0F841
:1054B0009C02704710B501F00F0404EBC401890091
:1054C00038310144043104EBC40C00EB8C0CCCF8F3
:1054D0004C20CCF854300023CCF85C3001238CF8FD
:1054E0003D308CF83C400369012B06D064B9DAB238
:1054F000006800F08FFE002010BD04EBC40C00EB30
:105500008C0CCCF85020F1E7DAB2006800F084FF90
:10551000F1E738B501F00F054268954239D80446E5
:105520000B4611F0800F1FD101EBC101890001F57D
:105530001E710144043103EBC30300EB830300221B
:1055400083F87D2201238B700D7094F8BC34012BFD
:1055500021D0012384F8BC34206801F094F88DB187
:10556000002084F8BC0438BD05EBC5018900383142
:105570000144043105EBC50300EB8303012283F8EA
:105580003D20DFE704F2C442217C206801F074F979
:10559000E6E70120E7E70220E5E701F00F034268B4
:1055A000934231D810B5044611F0800F1ED103EBA1
:1055B000C301890001F51E710144043103EBC302EC
:1055C00000EB8202002082F87D0200228A700B70BC
:1055D00094F8BC34012B19D0012384F8BC34206822
:1055E00001F07EF8002084F8BC0410BD03EBC30179
:1055F000890038310144043103EBC30200EB82021D
:10560000012082F83D00E0E7012070470220ECE72E
:1056100008B511F0800F0CD101F00F0101EBC101B1
:10562000890001F51E7101440431006800F07EFE1E
:1056300008BD01F00F0101EBC101890038310144BF
:105640000431F2E72DE9F04F83B00446056828469F
:1056500001F0CFF810B103B0BDE8F08F0646206826
:1056600001F098F80028F6D005F50067BB68C3F391
:105670000D23C4F8FC34206801F08CF810F0020F00
:1056800004D02268536903F002035361206801F0DB
:1056900081F810F0100F15D02268936923F01003E1
:1056A0009361D5F8208008F00F0908F4F013B3F5E2
:1056B000802F4CD0B3F5402F6FD02268936943F010
:1056C00010039361206801F065F810F4002F76D183
:1056D000206801F05FF810F4802F40F0E08020682F
:1056E00001F058F80028C0F26381206801F052F8F8
:1056F00010F4006F09D0BB6813F0010F40F0708107
:105700002268536903F400635361206801F042F892
:1057100010F4805F40F06881206801F03BF810F4DD
:10572000005F40F0B581206801F034F810F0080FF8
:1057300040F0C681206801F02DF810F0800F00F0D5
:10574000D981AB6923F08003AB610126C2E147F642
:10575000F07318EA030FB0D04FEA181A4FEAC903E2
:10576000019309EBC90B04EB8B0BC8F30A12DBF8AE
:105770008C12284600F064FFDBF88C32CAF30A0A68
:105780005344CBF88C32DBF89C32019A4A4404EB48
:1057900082025344C2F89C328FE7082204F2C441CB
:1057A000284600F04DFF09EBC90304EB8303D3F84F
:1057B0009C22C8F30A184244C3F89C227DE7206863
:1057C00000F0ECFF8046B14635E005EB49130122BD
:1057D000C3F8082B49462046FFF7F8FC3CE005EBF0
:1057E00049130822C3F8082B49462046FFF770FDED
:1057F00035E009EBC90304EB830393F87F32012BF7
:1058000041D005EB49130222C3F8082B1AF0200FF0
:1058100004D005EB49132022C3F8082B1AF4005FCB
:1058200005D005EB49134FF40052C3F8082B09F1DA
:1058300001094FEA5808B8F1000F3FF449AF18F0DA
:10584000010FF4D05FFA89FB5946206800F0B6FFDB
:10585000824610F0010FB8D11AF0080FBFD11AF02C
:10586000100F04D005EB49131022C3F8082B1AF0CF
:10587000020FCBD06B6913F0800FBAD07B6843F472
:1058800080637B60B5E709EBC90304EB8303002267
:1058900083F87F2259462046FFF76CF8B1E720686D
:1058A00000F084FF8046B14625E059462046FFF7C8
:1058B0001BF81AF0080F04D005EB49130822C3F8AF
:1058C00008291AF0100F04D005EB49131022C3F871
:1058D00008291AF0400F04D005EB49134022C3F801
:1058E00008291AF0020F40D11AF0800F5BD109F19C
:1058F00001094FEA5808B8F1000F3FF4F0AE18F074
:10590000010FF4D05FFA89FB5946206800F05FFF71
:10591000824610F0010FCCD009F00F02012101FAEC
:1059200002F27B6B23EA02037B6305EB4913C3F8A6
:10593000081923698B42B8D109EBC90304EB83032F
:10594000DA6C996C0A44DA64B9F1000FADD109EB55
:10595000C90304EB83035B6D002BA6D104F2C442A0
:105960000121206800F088FF9FE74946284600F0A3
:1059700065FA09EBC90304EB830393F83F30012B6D
:1059800005D005EB49130222C3F80829ACE709EB5F
:10599000C90304EB8303002283F83F2059462046C5
:1059A000FEF7EEFFEDE749462046FFF7EFFA9EE7E8
:1059B0007B6823F001037B6094F8F434012B08D05A
:1059C0002046FEF7D1FF2268536903F0004353617C
:1059D0008BE6002184F8F414204600F041F9F2E748
:1059E0002046FEF7A9FF8BE67B6823F001037B606E
:1059F0001021206800F022FA1AE005EB46134FF65A
:105A00007F31C3F80819D3F8002922F40012C3F833
:105A10000029C3F8081BD3F8002B22F40012C3F8A6
:105A2000002BD3F8002B42F00062C3F8002B0136A4
:105A30006368B342E1D8FB6943F00113FB61236B58
:105A4000DBB1D7F8843043F00B03C7F884307B6CAC
:105A500043F00B037B64D5F8003823F4FE63C5F8EC
:105A6000003804F2C442217C206800F005FF22685F
:105A7000536903F4805353614EE67B6943F400534A
:105A800043F02B037B613B6943F00B033B61E2E78F
:105A9000206800F0E3FE206800F0EEFAE06026687F
:105AA00001F01AFA0146227B304600F049F92046FF
:105AB000FEF72BFF2268536903F40053536132E66B
:105AC0002046FEF71CFF2268536903F00803536168
:105AD00030E601366368B3420CD906EBC60304EB2B
:105AE000830393F87F32012BF3D1F1B22046FFF705
